:020000000C945E
:1000020085000C9400000C9400000C9400000C94E9
:1000120000000C9400000C9400000C9400000C945E
:1000220000000C9400000C9400000C9400000C944E
:1000320000000C9400000C9400000C9400000C943E
:1000420000000C9400000C9400000C9400000C942E
:1000520000001027E80364000A00010000100001FC
:100062001000010053454E534F522047454D504119
:10007200004B656B756174616E2067656D70613AE6
:1000820020004D61676E697475646F004B6F6E641A
:1000920069736920616D616E004C616E6A75746B83
:1000A200616E2070656B65726A61616E20416E647B
:1000B20061203A200047656D7061207465726A6143
:1000C200646900536567657261206D656C61726970
:1000D2006B616E2064697269206B652074656D7056
:1000E200617420616D616E203A20000080C00100C1
:1000F2002D4E414E00494E46000002007202EE00B3
:1001020001007602F0000000F894EE27ECBBF1E06B
:10011200FBBFEBBFE5BF8DE0A2E0BB27ED938A9565
:10012200E9F780E098E0A0E6ED930197E9F7ECEFBC
:10013200F0E085919591009761F0A591B5910590B8
:100142001590BF01F00105900D920197E1F7FB01B7
:10015200F0CFEFE5EDBFE8E0EEBFC0E6D2E00C94F1
:10016200DA0044245524C69A88E28A95F1F7C698A3
:10017200A2E0B0E073D2B79BFECFB79B05C0F201FD
:1001820031962F013197F9CFF2016F2F660F660B6F
:10019200762FE9D1AAEFBDEE8BE69BE311D2E09375
:1001A2006E02F0936F026093700270937102A2D19B
:1001B2000895E0E0E7BBE0ECE8BBEFEFE4BBE3E08F
:1001C200E5BBA0E2CCD0CDDFAAE6B2E0FF276627EE
:1001D2007727C9D1ED93FD936D937C9319D1A6E650
:1001E200B0E01BD1A3E7B0E0ABD0E0916A02F0919E
:1001F2006B0260916C0270916D027ED1FA93EA9368
:10020200A0E6B2E0D7D0E0E1EA93A1E05CD0A0E6BC
:10021200B2E089D0E2E1EA93A1E055D0A4E8B0E0EF
:100222008FD0A8ECB0E01AD2FDD074F05ED0A89ABC
:10023200A998EED0AEE8B0E0F0D0ABE9B0E080D063
:10024200A4E6B0E00BD21BC0EDD0B4F44ED0A7EBC5
:10025200B0E0E3D0A5ECB0E073D0A898EDD0ECD03C
:10026200EBD0A998A0E1B0E0F9D1E6D0AA9AE0E0FB
:10027200EA93A0E028D003C0A898A99836D0A3CFCB
:10028200FFCF1A931A2FE2B3EF70AE2FE12FE07F68
:10029200EA2BE2BB8DE08A95F1F7929A8DE08A957E
:1002A200F1F792988DE08A95F1F782C0AA93A8811E
:1002B200E8DFE881E295E883A881E3DF85E88A95B3
:1002C200F1F7219608951A930A931A2F0A81E12FC2
:1002D200F0E0EE58FD4FE081E00FAE2FE7DF702E29
:1002E200612E1981088123960895A2E0ADD0ACE079
:1002F200DDDFA1E0A9D0E0E06E2E7E2E08951A93F4
:100302001A2F1A3011F0791440F0E0E0EA93639466
:10031200A62DD9DF1A3009F44BC07394909AA12FFD
:10032200C5DF909845C09BD09D01D9012F5F3F4FFB
:10033200EC911E2FE03019F0A12FE1DFF6CF0CC0B7
:100342008ED09D01F9012F5F3F4FE4911E2FE030C7
:1003520019F0A12FD4DFF6CF87D0249608951A93EF
:100362001A2FE1B3E06FE1BB8A9A889A899A929830
:1003720090989198912EE12FE058E0937402E12F2A
:10038200E054E0937502A4E1B0E068D161D060D09E
:100392005FD0A0E276DF88EC90E00197F1F7A8E267
:1003A20085DFA4E083DFA5E881DFA6E07FDF9DDFB4
:1003B20019910895BA93AA93A991B991E991F991E2
:1003C20030962AF4E095F09531966DE26D93E894BB
:1003D20080E197E20DD088EE93E00AD084E6992777
:1003E20007D08AE005D06E2F10D066276C9308954F
:1003F2006627E817F90720F06395E81BF90BC9F7A0
:10040200662311F416F008956894605D6D93089563
:100412006CDFE0E0EA93A0E056CF92DFE0E0EA93FF
:10042200A1E051CFA0916A02B0916B0280916C025F
:1004320090916D022CD00895A99AA0E1B0E00ED15E
:10044200A998A0E1B0E00AC131DFA3E0B0E006C1A3
:10045200A0E317DF88EC90E00197F1F708953A9353
:100462002A931A930A9308953B812A81198108815C
:100472000895F09560957095E195FF4F6F4F7F4F0E
:100482000895FE2FFF0FFF0B6F2F7F2F089500247B
:100492000A160B06080609060895552342F4503839
:1004A20011F4E0FF04C03196691F791F6BF050E828
:1004B200572711F45F9373C05F3F31F0660F000C52
:1004C20057956795752F08955F9300200AF072C0C3
:1004D2006BC050E8192E1522880F991F9527550FCA
:1004E200879550E8072E0522660F771F7527550F4F
:1004F20067950895689401C0E8945F93F2DF7038BD
:1005020018F07F3F08F44BC056E1571BAAF45195EF
:1005120058300EF4593030F0EFEFFFEF6FEF7FE716
:1005220077F91AC077275523B9F0EE0FFF1F661F20
:10053200771F5A95D1F710C07727583028F0EF2F40
:10054200F62F672F5850F9CF552331F076956795DE
:10055200F795E7955A95D1F700200AF48ADF5F9163
:100562000895689401C0E894309760407040B1F0FB
:10057200002426F0772312F400947BDF172E7EE10D
:10058200112032F07A95EE0FFF1F661F111CF9CF72
:10059200EF2FF62F612D5F938ADF5F910895EE278B
:1005A200FF27BF015F910895EFEFFFEF6FE77FEF46
:1005B2005F910895EFEFFFEF6FE77FE75F91089597
:1005C2005F9387DF703859F3903849F30124089418
:1005D200791F23F424F300203AF3ECCF0F921F93F8
:1005E2002F933F934F93112722279927689FA001AA
:1005F2008F9F302D410D591F6B9F300D411D591F8B
:100602008E9F27D0BF9F25D06A9F23D0BE9F1DD02B
:10061200AF9F1BD0AE9F110D291F391F491F591FB4
:10062200E32FF42F652F522F4F913F912F911F915E
:100632000F9066232AF0550FEE1FFF1F661F02C0A0
:1006420073954BF22ADF5F910895100D211D391F1A
:1006520002C0200D311D491F591F0895109639F00F
:10066200A89580ED97E00197F1F71197C9F70895E2
:00000001FF
