:100000000C9498000C9400000C9400000C940000D8
:100010000C9400000C9400000C9400000C94000060
:100020000C9400000C9400000C9400000C94000050
:100030000C9400000C9400000C9400000C94000040
:100040000C9400000C9400000C9400000C94000030
:100050000C9400001027E80364000A00010000105F
:1000600000011000010053454E534F522047454DAB
:100070005041004B656B756174616E2067656D70F2
:10008000613A20004D61676E697475646F004B6F53
:100090006E6469736920616D616E004C616E6A7592
:1000A000746B616E2070656B65726A61616E204170
:1000B0006E6461203A200047656D7061207465723E
:1000C0006A6164692C20536567657261206D656C97
:1000D0006172696B616E2064697269206B6520745E
:1000E000656D70617420616D616E0050696E74752C
:1000F000206B656C7561722074656C616820746535
:100100007262756B61204A616E67616E2050616E2C
:10011000696B000080C001002D4E414E00494E46E3
:1001200000000200720214010100760216010000B4
:10013000F894EE27ECBBF1E0FBBFEBBFE5BF8DE031
:10014000A2E0BB27ED938A95E9F780E098E0A0E66E
:10015000ED930197E9F7E2E2F1E08591959100973F
:1001600061F0A591B59105901590BF01F001059042
:100170000D920197E1F7FB01F0CFEFE5EDBFE8E06D
:10018000EEBFC0E6D2E00C94ED0044245524C69A9C
:1001900088E28A95F1F7C698A2E0B0E077D2B79BE3
:1001A000FECFB79B05C0F20131962F013197F9CFF1
:1001B000F2016F2F660F660B762FEDD1AAEFBDEE21
:1001C0008BE69BE315D2E0936E02F0936F0260938F
:1001D000700270937102A6D10895E0E0E7BBE0ECF5
:1001E000E8BBEFEFE4BBE3E0E5BBA0E2CCD0CDDFC2
:1001F000AAE6B2E0FF2766277727CDD1ED93FD93DE
:100200006D937C9319D1A6E6B0E01BD1A3E7B0E0D3
:10021000ABD0E0916A02F0916B0260916C02709138
:100220006D0282D1FA93EA93A0E6B2E0D7D0E0E182
:10023000EA93A1E05CD0A0E6B2E089D0E2E1EA93E3
:10024000A1E055D0A4E8B0E08FD0A8ECB0E01ED279
:10025000FDD064F05ED0A89AA998AA98EDD0AEE837
:10026000B0E0EFD0ABE9B0E0FBD01DC0EFD0BCF404
:1002700050D0A7EBB0E0F4D04CD0ABEEB0E074D0EF
:10028000A898F2D0F1D0F0D0A998A0E1B0E0FED1CA
:10029000EBD0AA9AE0E0EA93A0E029D004C0A898A5
:1002A000A998AA9836D0A3CFFFCF1A931A2FE2B3FA
:1002B000EF70AE2FE12FE07FEA2BE2BB8DE08A9555
:1002C000F1F7929A8DE08A95F1F792988DE08A95F0
:1002D000F1F782C0AA93A881E8DFE881E295E8837C
:1002E000A881E3DF85E88A95F1F7219608951A93AE
:1002F0000A931A2F0A81E12FF0E0EE58FD4FE081BA
:10030000E00FAE2FE7DF702E612E19810881239652
:100310000895A2E0B1D0ACE0DDDFA1E0ADD0E0E037
:100320006E2E7E2E08951A931A2F1A3011F079141A
:1003300040F0E0E0EA936394A62DD9DF1A3009F487
:100340004BC07394909AA12FC5DF909845C09FD061
:100350009D01D9012F5F3F4FEC911E2FE03019F026
:10036000A12FE1DFF6CF0CC092D09D01F9012F5FE4
:100370003F4FE4911E2FE03019F0A12FD4DFF6CFCC
:100380008BD0249608951A931A2FE1B3E06FE1BB46
:100390008A9A889A899A929890989198912EE12FAA
:1003A000E058E0937402E12FE054E0937502A4E179
:1003B000B0E06CD165D064D063D0A0E276DF88EC89
:1003C00090E00197F1F7A8E285DFA4E083DFA5E8DC
:1003D00081DFA6E07FDF9DDF19910895BA93AA938C
:1003E000A991B991E991F99130962AF4E095F095A7
:1003F00031966DE26D93E89480E197E20DD088EE3E
:1004000093E00AD084E6992707D08AE005D06E2FC2
:1004100010D066276C9308956627E817F90720F037
:100420006395E81BF90BC9F7662311F416F00895DC
:100430006894605D6D9308956CDFE0E0EA93A0E05E
:1004400056CF92DFE0E0EA93A1E051CFA0916A029B
:10045000B0916B0280916C0290916D0230D0089542
:1004600083DFA4E6B0E012C1A99AA0E1B0E00ED10A
:10047000A998A0E1B0E00AC12DDFA3E0B0E006C179
:10048000A0E313DF88EC90E00197F1F708953A9329
:100490002A931A930A9308953B812A81198108812E
:1004A0000895F09560957095E195FF4F6F4F7F4FE0
:1004B0000895FE2FFF0FFF0B6F2F7F2F089500244D
:1004C0000A160B06080609060895552342F450380B
:1004D00011F4E0FF04C03196691F791F6BF050E8FA
:1004E000572711F45F9373C05F3F31F0660F000C24
:1004F00057956795752F08955F9300200AF072C095
:100500006BC050E8192E1522880F991F9527550F9B
:10051000879550E8072E0522660F771F7527550F20
:1005200067950895689401C0E8945F93F2DF70388E
:1005300018F07F3F08F44BC056E1571BAAF45195C1
:1005400058300EF4593030F0EFEFFFEF6FEF7FE7E8
:1005500077F91AC077275523B9F0EE0FFF1F661FF2
:10056000771F5A95D1F710C07727583028F0EF2F12
:10057000F62F672F5850F9CF552331F076956795B0
:10058000F795E7955A95D1F700200AF48ADF5F9135
:100590000895689401C0E894309760407040B1F0CD
:1005A000002426F0772312F400947BDF172E7EE1DF
:1005B000112032F07A95EE0FFF1F661F111CF9CF44
:1005C000EF2FF62F612D5F938ADF5F910895EE275D
:1005D000FF27BF015F910895EFEFFFEF6FE77FEF18
:1005E0005F910895EFEFFFEF6FE77FE75F91089569
:1005F0005F9387DF703859F3903849F301240894EA
:10060000791F23F424F300203AF3ECCF0F921F93C9
:100610002F933F934F93112722279927689FA0017B
:100620008F9F302D410D591F6B9F300D411D591F5C
:100630008E9F27D0BF9F25D06A9F23D0BE9F1DD0FD
:10064000AF9F1BD0AE9F110D291F391F491F591F86
:10065000E32FF42F652F522F4F913F912F911F9130
:100660000F9066232AF0550FEE1FFF1F661F02C072
:1006700073954BF22ADF5F910895100D211D391FEC
:1006800002C0200D311D491F591F0895109639F0E1
:10069000A89580ED97E00197F1F71197C9F70895B4
:00000001FF
